:020000040000fa
:08000000009004000200000062
:020000040000fa
:04000800c89002009a
:020000040000fa
:04000c00c890020096
:020000040000fa
:04001000c890020092
:020000040000fa
:04001400c89002008e
:020000040000fa
:04001800c89002008a
:020000040000fa
:04001c00c890020086
:020000040000fa
:04002000c890020082
:020000040000fa
:04002400c89002007e
:020000040000fa
:04002800c89002007a
:020000040000fa
:04002c00c890020076
:020000040000fa
:04003000c890020072
:020000040000fa
:04003400c89002006e
:020000040000fa
:04003800c89002006a
:020000040000fa
:04003c00c890020066
:020000040000fa
:04004000c890020062
:020000040000fa
:04004400c89002005e
:020000040000fa
:04004800c89002005a
:020000040000fa
:04004c00c890020056
:020000040000fa
:04005000c890020052
:020000040000fa
:04005400c89002004e
:020000040000fa
:04005800c89002004a
:020000040000fa
:04005c00c890020046
:020000040000fa
:04006000c890020042
:020000040000fa
:04006400c89002003e
:020000040000fa
:04006800c89002003a
:020000040000fa
:04006c00c890020036
:020000040000fa
:04007000c890020032
:020000040000fa
:04007400c89002002e
:020000040000fa
:04007800c89002002a
:020000040000fa
:04007c00c890020026
:020000040000fa
:04008000c890020022
:020000040000fa
:04008400c89002001e
:020000040000fa
:04008800c89002001a
:020000040000fa
:04008c00c890020016
:020000040000fa
:04009000c890020012
:020000040000fa
:04009400c89002000e
:020000040000fa
:04009800c89002000a
:020000040000fa
:04009c00c890020006
:020000040000fa
:0400a000c890020002
:020000040000fa
:0400a400c8900200fe
:020000040000fa
:0400a800c8900200fa
:020000040000fa
:0400ac00c8900200f6
:020000040000fa
:0400b000c8900200f2
:020000040000fa
:0400b400c8900200ee
:020000040000fa
:0400b800c8900200ea
:020000040000fa
:0400bc00c8900200e6
:020000040000fa
:0400c000c8900200e2
:020000040000fa
:0400c400c8900200de
:020000040000fa
:0400c800c8900200da
:020000040000fa
:0400cc00c8900200d6
:020000040000fa
:0400d000c8900200d2
:020000040000fa
:0400d400c8900200ce
:020000040000fa
:0400d800c8900200ca
:020000040000fa
:0400dc00c8900200c6
:020000040000fa
:0400e000c8900200c2
:020000040000fa
:0400e400c8900200be
:020000040000fa
:0400e800c8900200ba
:020000040000fa
:0400ec00c8900200b6
:020000040000fa
:0400f000c8900200b2
:020000040000fa
:0400f400c8900200ae
:020000040000fa
:0400f800c8900200aa
:020000040000fa
:0400fc00c8900200a6
:020000040000fa
:04010000c8900200a1
:020000040000fa
:04010400c89002009d
:020000040000fa
:04010800c890020099
:020000040000fa
:04010c00c890020095
:020000040000fa
:04011000c890020091
:020000040000fa
:04011400c89002008d
:020000040000fa
:04011800c890020089
:020000040000fa
:04011c00c890020085
:020000040000fa
:04012000c890020081
:020000040000fa
:04012400c89002007d
:020000040000fa
:04012800c890020079
:020000040000fa
:04012c00c890020075
:020000040000fa
:04013000c890020071
:020000040000fa
:04013400c89002006d
:020000040000fa
:04013800c890020069
:020000040000fa
:04013c00c890020065
:020000040000fa
:04014000c890020061
:020000040000fa
:04014400c89002005d
:020000040000fa
:04014800c890020059
:020000040000fa
:04014c00c890020055
:020000040000fa
:04015000c890020051
:020000040000fa
:04015400c89002004d
:020000040000fa
:04015800c890020049
:020000040000fa
:04015c00c890020045
:020000040000fa
:04016000c890020041
:020000040000fa
:04016400c89002003d
:020000040000fa
:04016800c890020039
:020000040000fa
:04016c00c890020035
:020000040000fa
:04017000c890020031
:020000040000fa
:04017400c89002002d
:020000040000fa
:04017800c890020029
:020000040000fa
:04017c00c890020025
:020000040000fa
:04018000c890020021
:020000040000fa
:04018400c89002001d
:020000040000fa
:04018800c890020019
:020000040000fa
:04018c00c890020015
:020000040000fa
:04019000c890020011
:020000040000fa
:04019400c89002000d
:020000040000fa
:04019800c890020009
:020000040000fa
:04019c00c890020005
:020000040000fa
:04020800c890020098
:020000040000fa
:04020c00c890020094
:020000040000fa
:04021000c890020090
:020000040000fa
:04021400c89002008c
:020000040000fa
:04021800c890020088
:020000040000fa
:04021c00c890020084
:020000040000fa
:04022000c890020080
:020000040000fa
:04022400c89002007c
:020000040000fa
:04022800c890020078
:020000040000fa
:04022c00c890020074
:020000040000fa
:04023000c890020070
:020000040000fa
:04023400c89002006c
:020000040000fa
:04023800c890020068
:020000040000fa
:04023c00c890020064
:020000040000fa
:04024000c890020060
:020000040000fa
:04024400c89002005c
:020000040000fa
:04024800c890020058
:020000040000fa
:04024c00c890020054
:020000040000fa
:04025000c890020050
:020000040000fa
:04025400c89002004c
:020000040000fa
:04025800c890020048
:020000040000fa
:04025c00c890020044
:020000040000fa
:04026000c890020040
:020000040000fa
:04026400c89002003c
:020000040000fa
:04026800c890020038
:020000040000fa
:04026c00c890020034
:020000040000fa
:04027000c890020030
:020000040000fa
:04027400c89002002c
:020000040000fa
:04027800c890020028
:020000040000fa
:04027c00c890020024
:020000040000fa
:04028000c890020020
:020000040000fa
:04028400c89002001c
:020000040000fa
:04028800c890020018
:020000040000fa
:04028c00c890020014
:020000040000fa
:04029000c890020010
:020000040000fa
:04029400c89002000c
:020000040000fa
:04029800c890020008
:020000040000fa
:04029c00c890020004
:020000040000fa
:0402a000c890020000
:020000040000fa
:0402a400c8900200fc
:020000040000fa
:0402a800c8900200f8
:020000040000fa
:0402ac00c8900200f4
:020000040000fa
:0402b000c8900200f0
:020000040000fa
:0402b400c8900200ec
:020000040000fa
:0402b800c8900200e8
:020000040000fa
:0402bc00c8900200e4
:020000040000fa
:0402c000c8900200e0
:020000040000fa
:0402c400c8900200dc
:020000040000fa
:0402c800c8900200d8
:020000040000fa
:0402cc00c8900200d4
:020000040000fa
:0402d000c8900200d0
:020000040000fa
:0402d400c8900200cc
:020000040000fa
:0402d800c8900200c8
:020000040000fa
:0402dc00c8900200c4
:020000040000fa
:0402e000c8900200c0
:020000040000fa
:0402e400c8900200bc
:020000040000fa
:0402e800c8900200b8
:020000040000fa
:0402ec00c8900200b4
:020000040000fa
:0402f000c8900200b0
:020000040000fa
:0402f400c8900200ac
:020000040000fa
:0402f800c8900200a8
:020000040000fa
:0402fc00c8900200a4
:020000040000fa
:04030000c89002009f
:020000040000fa
:04030400c89002009b
:020000040000fa
:04030800c890020097
:020000040000fa
:04030c00c890020093
:020000040000fa
:04031000c89002008f
:020000040000fa
:04031400c89002008b
:020000040000fa
:04031800c890020087
:020000040000fa
:04031c00c890020083
:020000040000fa
:04032000c89002007f
:020000040000fa
:04032400c89002007b
:020000040000fa
:04032800c890020077
:020000040000fa
:04032c00c890020073
:020000040000fa
:04033000c89002006f
:020000040000fa
:04033400c89002006b
:020000040000fa
:04033800c890020067
:020000040000fa
:04033c00c890020063
:020000040000fa
:04034000c89002005f
:020000040000fa
:04034400c89002005b
:020000040000fa
:04034800c890020057
:020000040000fa
:04034c00c890020053
:020000040000fa
:04035000c89002004f
:020000040000fa
:04035400c89002004b
:020000040000fa
:04035800c890020047
:020000040000fa
:04035c00c890020043
:020000040000fa
:04036000c89002003f
:020000040000fa
:04036400c89002003b
:020000040000fa
:04036800c890020037
:020000040000fa
:04036c00c890020033
:020000040000fa
:04037000c89002002f
:020000040000fa
:04037400c89002002b
:020000040000fa
:04037800c890020027
:020000040000fa
:04037c00c890020023
:020000040000fa
:04038000c89002001f
:020000040000fa
:04038400c89002001b
:020000040000fa
:04038800c890020017
:020000040000fa
:04038c00c890020013
:020000040000fa
:04039000c89002000f
:020000040000fa
:04039400c89002000b
:020000040000fa
:04039800c890020007
:020000040000fa
:04039c00c890020003
:020000040000fa
:020000040005f5
:102000008f8021000e7f24000e0188000000000058
:10201000000020000000e00002003200000120006b
:1020200020028800140007005b0007000000e000a9
:1020300003003a00a06a29002100200002003700b6
:102040000000200001002000810f7000010032001c
:1020500014000700000020000000e0000200320031
:1020600000000200000000005c9602000200000078
:102070000040da000000fe004440a90000002000fb
:102080000000e0000300320000002000a0018800f2
:102090004440a800000006008a1f78008b1f7800cb
:1020a0000000060091018800800478000000eb0029
:1020b0001a003700e284440032a0b4009905ba0047
:1020c000e284440032a0b4009906ba00e2844400dd
:1020d00032a0b4000006eb00476fde00fd07b2003f
:1020e000636ce10003003a00ebff07000000eb0027
:1020f0000a003700606ce10004003a00005deb006c
:102100008b05e900fdff3e00040037006168e10037
:10211000010032000086eb000b00070019c7ba006f
:102120001905ba000e04e00003003a000a00e000be
:10213000e0ff3a0000000600fe07b2009e018800a2
:102140008a047800f5ff3700395dba008b05e90095
:102150000c003200295dba008b05e900080032004e
:102160000c00e00003003a00e284440032a0b40016
:10217000f5ff370019ddba008b05e900faff3a00d8
:102180008904e800e184440032a0b40000000600a5
:0c2190000040da000000fe000000050026
:020000040000fa
:020000040005f5
:10219c000000fa00ec01070060c0b3003b0207002e
:1021ac00ed0107000080fa00000006000000fa00b4
:1021bc00e501070040c0b30034020700e601070048
:1021cc000080fa00000006000800fa0020079800c2
:1021dc00310798002e019000be01900000002000f5
:1021ec00f10f2000020278000301780080017800d2
:1021fc000100780003026200000061008000eb0027
:10220c00c000dd00000020000001be006120b8000d
:10221c0000017100818171004018de000100200076
:10222c00004278002e019000be01900000f02f00bb
:10223c000100200082027800030178008001780000
:10224c000100780083826200000061008000eb00d6
:10225c00c000dd00000020000001be006128b800b5
:10226c000001710081817100c81add004810de0088
:10227c0000807200c818de00804078002e009000ac
:10228c000040780092c3b300024f780014479800c6
:10229c002147980030479800ab01070041c0b300bc
:1022ac000e00780004020700ab0107000080fa0062
:1022bc00000006000e00fa00300798004107980055
:1022cc0052079800630798003e019000ce019000e1
:1022dc0000002000f10f20000202780003017800ba
:1022ec0080017800010078000302620000006100a8
:1022fc008000eb00c000dd00000020000001be00eb
:10230c006120b80000017100818171004018de006d
:10231c0001002000004278003e019000ce019000a8
:10232c0000f02f00010020008202780003017800e9
:10233c008001780001007800838262000000610057
:10234c008000eb00c000dd00000020000001be009a
:10235c006128b8000001710081817100c81add008c
:10236c004810de0000807200c818de008040780043
:10237c003e0090000040780022c0b3002247980035
:10238c0034479800414798005047980080ff070059
:10239c006d0107000e80e80041c0b300c6010700c4
:1023ac006e00900000407800804078005e00900045
:1023bc00c1010700680107000100370000000000a0
:1023cc000e0078008e0007001e40900061406000f7
:1023dc000004e000f9ff3a00000000000080fa0061
:1023ec00000006000c00fa00200798003107980046
:1023fc0042079800530798002e019000be019000f0
:10240c0000002000f10f2000020278000301780088
:10241c008001780001007800030262000000610076
:10242c008000eb00c000dd00000020000001be00b9
:10243c006120b80000017100818171004018de003c
:10244c0001002000004278002e019000be01900097
:10245c0000f02f00010020008202780003017800b8
:10246c008001780001007800838262000000610026
:10247c008000eb00c000dd00000020000001be0069
:10248c006128b8000001710081817100c81add005b
:10249c004810de0000807200c818de008040780012
:1024ac002e0090000040780032c0b300024f78003c
:1024bc0014479800214798003047980022010700e4
:1024cc0041c0b3000e0078007b0107005e00900055
:1024dc0000407800804078004e0090008901070091
:1024ec001d0107000080fa00000006000a00fa0037
:1024fc0030079800410798003e019000ce019000f3
:10250c0000002000f10f2000020278000301780087
:10251c008001780001007800030262000000610075
:10252c008000eb00c000dd00000020000001be00b8
:10253c006120b80000017100818171004018de003b
:10254c0001002000004278003e019000ce01900076
:10255c0000f02f00010020008202780003017800b7
:10256c008001780001007800838262000000610025
:10257c008000eb00c000dd00000020000001be0068
:10258c006128b8000001710081817100c81add005a
:10259c004810de0000807200c818de008040780011
:1025ac003e0090000040780082cdb3002247980096
:1025bc00344798004147980050479800f4fe0700b4
:1025cc00e10007000e80e80041c0b3003a010700ab
:1025dc00e100070001003700000000000e00780049
:1025ec00070007001e409000614060000004e000fe
:1025fc00f9ff3a00000000000080fa00000006001d
:10260c000200fa00000f7800cf00070050c0b300a2
:10261c001e0107001e00780021c0b300390107001d
:10262c00cd0007000080fa00000006000800fa0048
:10263c001007980022079800330798002e0090008e
:10264c00be0090004008de000040780032e0b70089
:10265c00ae009000010f78001e00900037000700bc
:10266c001e007800480007001e0078005600070086
:10267c000080fa00000006000800fa0030079800fd
:10268c00be009000010f78000628ef0024003700f0
:10269c001e0078001000ba00100798001e00780089
:1026ac001080ba0020079800304080009e009000f7
:1026bc000141780081002100827078000000e80060
:1026cc0030408800304080009e009000c808de003a
:1026dc000141780081002100827078000000e80040
:1026ec003040880030408000ae00900001417800fe
:1026fc0081002100827078000000e80030408800e2
:10270c0030408000810021000041eb008270780095
:10271c001e8fe800304080000000e8003040880048
:10272c0031408000f07f2000808f5000d8ff3400b3
:10273c00800021000080fa00000006000200fa0070
:10274c00000f78000628ef000900370030408000a9
:10275c009e00780011417800810021008270780081
:10276c001e0fe800304080000000e8003040880078
:10277c0031408000f07f2000808f5000f3ff340048
:10278c000080fa00000006000200fa00000f78003a
:10279c001e0078008000eb000108bb002004240020
:1027ac00003b880050052000303b8800a00a200028
:1027bc00303b880061e7a80000000000000000002a
:1027cc000080fa00000006001000fa007007980064
:1027dc00fe009000010f78000040eb0020479800ad
:1027ec000040eb00204798003d003700100024000b
:1027fc00003b88002e4090000080fb004800dd006c
:10280c00200798002e0090003040880024003700ec
:10281c003040800081002100e14078008180fb0085
:10282c00310798000000e8003040880030408000fc
:10283c0081002100e14078008180fb00c808dd00a8
:10284c00410798000000e80030408800be0090006e
:10285c004e0090000100700050079800304080003e
:10286c0081002100e14078008180fb006107980025
:10287c000000e800304088001e007800de00900068
:10288c000108bb001e007800ee0090000188bb0020
:10289c001e8fe800304080000000e80030408800c7
:1028ac0030408000800078002e0090000010b000b6
:1028bc00808f5000d6ff390050052000303b880037
:1028cc00a00a2000303b880061e7a800000000004f
:1028dc00000000002e4090000040e80020479800c7
:1028ec002e409000e74f5000c0ff36000080fa00e9
:1028fc00000006000c00fa004007980051079800f1
:10290c004e0090001080ba008000eb00c000dd008b
:10291c0000002000008fbe004e0090001000ba0096
:10292c008000eb0020079800310798002e009000e3
:10293c00be0090003e017000ae8170000200be002f
:10294c000080fa00000006000000fa00dba2a900db
:10295c000080fa00000006000000fa00dba2a800cc
:10296c000080fa00000006000000fa0041e2a90015
:10297c00d802a800d9a2a900dba2a800113a8000b5
:10298c00f00b200000816000600420007105200025
:10299c0023742000804978008149780082497800ae
:1029ac0000000000113a800000042000008060004c
:1029bc000000e000fbff3a006136800000fc2f00b5
:1029cc00008060000030a000603688001136800066
:1029dc00f00f2c008080600000702000010070005f
:1029ec00103688004135800000fc2f00008060000c
:1029fc00b000b30040358800103a80000001780028
:102a0c000260a000600420007105200023742000e7
:102a1c0080497800814978008249780000000000e4
:102a2c00113a800000042000008060000000e000eb
:102a3c00fbff32008540a9009540a90041a2a900e6
:102a4c004822ef004382a9004362a9004322a90057
:102a5c004302a80042c2a90042a2a80011128000a1
:102a6c0030fe2f00008060008001b300101288003f
:102a7c00101280003000b3001012880040c2a90070
:102a8c0041e2a8000080fa00000006000200fa00f3
:102a9c00004f78001e80fb004012880000000000f0
:102aac0000128000620060000000e000fcff3a00b1
:102abc000080fa00000006000600fa0010079800db
:102acc00414798000000eb00000f7800070037002a
:102adc001e009000104078009e0090008100e800dd
:102aec0011079800e9ff07001e0fe8004e40900008
:102afc000080fb009e0f5000f5ff3c000080fa00a8
:102b0c00000006000600fa001007980041479800e4
:102b1c0040c2a90040128000000f78000000eb00ba
:102b2c00000f78000e0037004822ef000000000074
:102b3c0000128000610060000000e000fcff320029
:102b4c0040128000804078001e0090000148780000
:102b5c001e0090000000e800100798001e0fe8000f
:102b6c004e4090000080fb009e0f5000eeff3c009a
:102b7c000080fa00000006000600fa00200798000a
:102b8c002e009000cf80de00c200dd00000020008f
:102b9c00008fbe001e007800004088003700370010
:102bac000228ef002d0037001040800080007800d4
:102bbc008080200000814000114080000040800097
:102bcc0000804000cf80de000308200005fe0700d7
:102bdc0010408000cf80de003e014000ae814800f6
:102bec000200be00be0f5000ae8f580018003a0015
:102bfc00808020008040eb0001487800908020000d
:102c0c0091c0b30001487800a080200041c0b300ff
:102c1c0001487800b08020008040eb00014878002b
:102c2c00c080200021c0b30001487800d080200073
:102c3c008040eb0001487800e08020008040eb00f1
:102c4c0001487800f08020008040eb0001487800bb
:102c5c00104080000008b000104088001140800037
:102c6c00f07f2000808f5000cfff340001408000a7
:102c7c000080200000804000004088000040800060
:102c8c006101b90000002000410020003e0240001c
:102c9c00ae8248000400be00800f5100818f5900a5
:102cac00bfff39000080fa00000006000200fa00a5
:102cbc002dff07006000b80043fd07000040eb004b
:102ccc00004f7800130020000e01780080002000d7
:102cdc0001402000c3fd07001e407800f34f500058
:102cec0012003a00130020000001eb0080002000cd
:102cfc00014020006ffd07000040eb0010479800da
:102d0c000e00e80013002000000178009000200065
:102d1c0001402000b3fd07001e4090000080fb0026
:102d2c0095ff0700030007000100370001000700b2
:102d3c00ffff37000200fa0000202000000f78008f
:082d4c001e00780000400100a8
:020000040000fa
:020000040005f5
:102d54000408000002000000000000000808000051
:102d6400000800000000000000080000040000004b
:102d7400000000000810000000080000000000002f
:102d8400060800000200000000000000000000002f
:00000001FF
